:020000040000fa
:080000000001040000000000f3
:020000040000fa
:100008009401000094010000940100009401000094
:100018009401000094010000940100009401000084
:100028009401000094010000940100009401000074
:100038009401000094010000940100009401000064
:100048009401000094010000940100009401000054
:100058009401000094010000940100009401000044
:100068003202000094010000940100009401000095
:100078009401000094010000940100009401000024
:100088009401000094010000940100009401000014
:100098009401000094010000940100009401000004
:1000a80094010000940100009401000094010000f4
:1000b80094010000940100009401000094010000e4
:1000c80094010000940100009401000094010000d4
:1000d80094010000940100009401000094010000c4
:1000e80094010000940100009401000094010000b4
:0800f8009401000094010000d6
:020000040000fa
:100108009401000094010000940100009401000093
:100118009401000094010000940100009401000083
:100128009401000094010000940100009401000073
:100138009401000094010000940100009401000063
:100148009401000094010000940100009401000053
:100158009401000094010000940100009401000043
:100168003202000094010000940100009401000094
:100178009401000094010000940100009401000023
:100188009401000094010000940100009401000013
:100198009401000094010000940100009401000003
:1001a80094010000940100009401000094010000f3
:1001b80094010000940100009401000094010000e3
:1001c80094010000940100009401000094010000d3
:1001d80094010000940100009401000094010000c3
:1001e80094010000940100009401000094010000b3
:0801f8009401000094010000d5
:020000040000fa
:100200002f8020000eff20000e018800000000005b
:1002100000012000200288000c00070000262000ba
:100220000100200011000700000020000000e00095
:100230000200320000000200000000001202020072
:10024000000000000040da000000fe004440a90069
:10025000000020000000e000030032000000200049
:10026000a00188004440a800000006009101880019
:10027000800078000000eb0015003700e2804000ad
:1002800032a0b4009101ba00e280400032a0b40074
:100290009102ba00e280400032a0b4000002eb00fc
:1002a000472bde00f507b200602ce10004003a00a5
:1002b0000059eb008301e900fdff3e000400370018
:1002c0006128e100010032000082eb000400070019
:1002d0001101ba000200e000e8ff3a000000060049
:1002e0003159ba008301e9000c0032002159ba00eb
:1002f0008301e900080032000400e00003003a0036
:10030000e280400032a0b400f5ff370011d9ba00f6
:100310008301e900faff3a008100e800e180400033
:1003200032a0b400000006000040da000000fe0029
:020000040000fa
:100330000600fa00200798000002eb00040f780086
:100340000b0037000002eb00140798000300370091
:100350001e0290000402e800140798009e0290001c
:10036000f47c2000848f5200f9ff36001e0fe80055
:100370002e0290009e027800848f5200f1ff390017
:100380000080fa00000006000000fa0006003700b6
:1003900000000000153a8000040220000482620080
:1003a000e00f5200fbff3200153a800004002300ea
:1003b0008482620004002300848f5200f4ff3a001c
:1003c0000080fa00000006000000fa000002eb00c6
:1003d000440e88000002eb00c41688000082eb0087
:1003e000d4168800d202a80005048000040028006a
:1003f00004827200040488008e00a800e4048000d7
:100400000400a0000410a0000420a000e404880060
:100410000002eb00340488008220a8000080fa006b
:10042000000006000000fa00d7ff0700e6ff070003
:100430000100370000000000048020001442780012
:10044000e14f5200fbff3a000042eb00044078000d
:1004500000e8b700d41680000482ea00d4168800b1
:10046000f5ff37003600f800809fbe00829fbe0077
:10047000849fbe00869fbe003400f800000020006c
:10048000a00188000000fa0040012000a8ff07003a
:100490008600a90014c0b3000440780000e8b7004b
:1004a0000080fa003400f9004f03be004f02be0086
:1004b0004f01be004f00be003600f90000400600ac
:020000040000fa
:1004c0000008000002000000020000000000000020
:0404d0000000000028
:020000040000fa
:0200000401f009
:0400000007c3000032
:020000040000fa
:0200000401f009
:0400040000000000f8
:020000040000fa
:0200000401f009
:04000800a2830000cf
:020000040000fa
:0200000401f009
:04001400ffff0000ea
:00000001FF
