:020000040000fa
:080000000001040000000000f3
:020000040000fa
:100008009401000094010000940100009401000094
:100018009401000094010000940100009401000084
:100028009401000094010000940100009401000074
:100038009401000094010000940100009401000064
:100048009401000094010000940100009401000054
:100058009401000094010000940100009401000044
:100068009401000094010000940100009401000034
:100078009401000094010000940100009401000024
:100088009401000094010000940100009401000014
:100098009401000094010000940100009401000004
:1000a80094010000940100009401000094010000f4
:1000b80094010000940100009401000094010000e4
:1000c80094010000940100009401000094010000d4
:1000d80094010000940100009401000094010000c4
:1000e80094010000940100009401000094010000b4
:0800f8009401000094010000d6
:020000040000fa
:100108009401000094010000940100009401000093
:100118009401000094010000940100009401000083
:100128009401000094010000940100009401000073
:100138009401000094010000940100009401000063
:100148009401000094010000940100009401000053
:100158009401000094010000940100009401000043
:100168009401000094010000940100009401000033
:100178009401000094010000940100009401000023
:100188009401000094010000940100009401000013
:100198009401000094010000940100009401000003
:1001a80094010000940100009401000094010000f3
:1001b80094010000940100009401000094010000e3
:1001c80094010000940100009401000094010000d3
:1001d80094010000940100009401000094010000c3
:1001e80094010000940100009401000094010000b3
:0801f8009401000094010000d5
:020000040000fa
:10020000cf8420000eff20000e01880000000000b7
:1002100000012000200288000c000700005c200084
:100220000100200011000700000020000000e00095
:10023000020032000000020000000000ce040200b4
:10024000000000000040da000000fe004440a90069
:10025000000020000000e000030032000000200049
:10026000a00188004440a800000006009101880019
:10027000800078000000eb0015003700e2804000ad
:1002800032a0b4009101ba00e280400032a0b40074
:100290009102ba00e280400032a0b4000002eb00fc
:1002a000472bde00f507b200602ce10004003a00a5
:1002b0000059eb008301e900fdff3e000400370018
:1002c0006128e100010032000082eb000400070019
:1002d0001101ba000200e000e8ff3a000000060049
:1002e0003159ba008301e9000c0032002159ba00eb
:1002f0008301e900080032000400e00003003a0036
:10030000e280400032a0b400f5ff370011d9ba00f6
:100310008301e900faff3a008100e800e180400033
:1003200032a0b400000006000040da000000fe0029
:10033000839f68000100e00002003d0060001000a3
:10034000e08018000300e00002003d0060011100a1
:10035000e0811900140007004f00e00002003b009c
:1003600060001000e080180000000600811f780087
:100370000100e00002003d0060001000e080180075
:100380000300e00002003d0060011100e08119005f
:10039000150007004f00e00002003b006000100065
:1003a000e0801800000006006022b800060220006d
:1003b0000000d0008180d2000482d2008582d20069
:1003c0000000a0000202520083825a0003003100a4
:1003d0000202420083824a000000a1000603e900f5
:1003e000f3ff3a0000000600efff07000400be0024
:0403f0000000060003
:020000040000fa
:1003f4000200fa000042eb00044f780002003700cc
:10040400000000001e4fe8001e427800f34f520027
:10041400fbff36000080fa00000006000400fa002a
:1004240010079800070037000042eb00044f7800e3
:10043400010037001e4fe8001e427800f34f5200bf
:10044400fcff36001e02900004f0a7000402ea003c
:100454000402ea004f22de00044278009e0290006b
:100464008502e90015079800e04f5200eeff3a00bc
:100474000080fa00000006000400fa00100798004b
:10048400070037000042eb00044f780001003700fa
:100494001e4fe8001e427800f34f5200fcff360066
:1004a4001e02900004f0a7000402ea000402ea001d
:1004b4004f22de00044278009e0290008502e9008b
:1004c40015079800e04f5200eeff3a000080fa0052
:1004d400000006000600fa00200798000002eb0066
:1004e400040f78000b0037000002eb00140798009b
:1004f400030037001e0290000402e800140798006d
:100504009e029000f47c2000848f5200f9ff360094
:100514001e0fe8002e0290009e027800848f520085
:10052400f1ff39000080fa00000006000200fa0022
:10053400c6e2a800d622a900d662a800d642a80026
:1005440050002000b5ff0700451680000408200075
:1005540004826200e00f520002003a000042eb0005
:10056400044f7800d642a900c6e2a9001e427800d2
:10057400044078000080fa00000006000200fa003f
:10058400004f7800d622a900d662a900d642a9005d
:100594000000000000000000000000000000000057
:1005a4009e4278000582fb0044168800500020001b
:1005b4009aff0700d642a8005000200097ff0700ca
:1005c400d642a9000080fa00000006000200fa00ea
:1005d400004f7800d622a800d662a900d642a9000e
:1005e4009e4278000582fb004416880050002000db
:1005f4008aff0700d642a8005000200087ff0700aa
:10060400d642a9000080fa00000006000000fa00ab
:10061400d1a2a800dd02a900e00120007fff0700ad
:10062400dd02a800e00120007cff070040c3b30006
:10063400d2ff07002003200078ff070000c3b300a7
:10064400ceff07002003200074ff0700c0c0b300e2
:10065400caff07002003200070ff070010c0b3008a
:10066400c6ff0700200320006cff07000080fa008b
:10067400000006000400fa00204798003147980063
:100684002e429000e14f520003003a0004c8b30028
:1006940024479800110037002e429000e24f520088
:1006a40003003a0004c9b300244798000b00370044
:1006b4002e429000e34f520003003a0084c8b30076
:1006c40024479800050037002e429000e44f520062
:1006d40002003a0084c9b30024479800ae42900057
:1006e4003e42900004cf42001e407800a3ff070062
:1006f4000080fa00000006000000fa0040c3b300c6
:100704009eff07005000200044ff070000c3b30011
:100714009aff07005000200040ff070010c0b300fc
:1007240096ff0700500020003cff07000080fa00fd
:10073400000006000200fa00efff070000c8b30043
:100744008eff07000042eb00044f780005003700dd
:1007540005c3b3001ec24200044078009bff07009b
:100764001e4fe8001e427800ef4f5200f8ff36009b
:1007740000c9b30081ff07000042eb00044f78007a
:100784000500370005c4b3001ec2420004407800cf
:100794008eff07001e4fe8001e427800ef4f520004
:1007a400f8ff360080c8b30074ff07000042eb0076
:1007b400044f78000500370005c5b3001ec242008f
:1007c4000440780081ff07001e4fe8001e427800b5
:1007d400ef4f5200f8ff360080c9b30067ff0700ef
:1007e4000042eb00044f78000500370005c6b30053
:1007f4001ec242000440780074ff07001e4fe80048
:100804001e427800ef4f5200f8ff36000080fa00d5
:10081400000006000200fa00000f78001e027800b3
:1008240005002000026a2800130020000400be0016
:10083400cdfe07000002be0002712200030020006a
:100844000400be00c8fe07000002be00823e200075
:10085400030020000400be00c3fe07000002be0027
:1008640042062000030020000400be00befe070074
:100874000002be00a2002000030020000400be000d
:10088400aafe07000002be00044278000443b00040
:100894000440780045e8b7001e02780005002000f7
:1008a400026a2800130020000400be00aefe070008
:1008b4000002be0002712200030020000400be00fa
:1008c400a9fe07000002be00823e200003002000b3
:1008d4000400be00a4fe07000002be004206200081
:1008e400030020000400be009ffe07000002be00bb
:1008f400a2002000030020000400be009afe0700ae
:100904000002be00044278000443b00004407800b2
:1009140046e8b7000080fa00000006000000fa0074
:100924000600370000000000153a80000402200091
:1009340004826200e00f5200fbff3200153a80008f
:10094400040023008482620004002300848f520088
:10095400f4ff3a000080fa00000006000000fa00ec
:100964000002eb00941688000002eb006416880075
:100974000002eb00341688000002eb0044168800e5
:100984000002eb00440e88000002eb00c41688004d
:100994000080fa00000006000200fa00dfff0700f2
:1009a400eeff070019ff070062ff070052ff070070
:1009b400803e200099fe070000c8b300effe070048
:1009c4008040eb0010c0b3002aff07000042eb0098
:1009d400044f78000a0037001e4278008482fb002e
:1009e400048020000482420014427800044078000d
:1009f400f6fe0700e001200088fe07001e4fe80015
:100a04001e427800ef4f5200f3ff36008040eb00a7
:100a140020c0b30017ff07000042eb00044f78002a
:100a24000a0037001e4278008482fb0024812000e3
:100a3400048242001442780004407800e3fe070078
:100a4400e001200075fe07001e4fe8001e427800fa
:100a5400ef4f5200f3ff36008040eb0030c0b3008c
:100a640004ff07000042eb00044f78000a0037003f
:100a74001e4278008482fb003482200004824200fb
:100a84001442780004407800d0fe0700e001200002
:100a940062fe07001e4fe8001e427800ef4f52002e
:100aa400f3ff36008040eb0040c0b300f1fe0700c6
:100ab4000042eb00044f78000a0037001e42780021
:100ac4008482fb00448320000482420014427800a4
:100ad40004407800bdfe0700e00120004ffe07003f
:100ae4001e4fe8001e427800ef4f5200f3ff36001d
:100af4001e4290000442e800144798001e429000f1
:100b0400fe4f5200020036000042eb0014479800ea
:100b14001e4290000482fb00040078003dff0700a1
:100b2400e0c9b30095fe07000042eb00044f7800d3
:100b3400080037001e4278008482fb0054842000a1
:100b44000482420014427800044078009ffe0700ab
:100b54001e4fe8001e427800e14f5200f5ff3600b8
:100b6400da02a900007721002cfe0700da02a800af
:0c0b74000077210029fe0700ddff37009c
:020000040000fa
:100b8000000800004c000000020000002a2a2a0091
:100b90002ab2a900bfc6b500e7d7d3002a2a2a0087
:100ba0002a2a00002a2a2a002a2a2a002a2a2a0077
:100bb0002a2a2a002a2a2a002a002a002a2a2a0067
:100bc0002a2a2a002a2a2a002a2a2a002a2a2a002d
:100bd000002a2a002a32300031372f0030372f0008
:100be00030362a002a2a0000000000000000000021
:080bf0000000000000000000fd
:020000040000fa
:0200000401f009
:0400000004c3000035
:020000040000fa
:0200000401f009
:0400040000000000f8
:020000040000fa
:0200000401f009
:04000800a2830000cf
:020000040000fa
:0200000401f009
:04001400ffff0000ea
:00000001FF
