:020000040000fa
:080000000001040000000000f3
:020000040000fa
:100008009401000094010000940100009401000094
:100018009401000094010000940100009401000084
:100028009401000094010000940100009401000074
:100038009401000094010000940100009401000064
:100048009401000094010000940100009401000054
:100058009401000094010000940100009401000044
:100068009401000094010000940100009401000034
:100078009401000094010000940100009401000024
:100088009401000094010000940100009401000014
:100098009401000094010000940100009401000004
:1000a80094010000940100009401000094010000f4
:1000b80094010000940100009401000094010000e4
:1000c80094010000940100009401000094010000d4
:1000d80094010000940100009401000094010000c4
:1000e80094010000940100009401000094010000b4
:0800f8009401000094010000d6
:020000040000fa
:100108009401000094010000940100009401000093
:100118009401000094010000940100009401000083
:100128009401000094010000940100009401000073
:100138009401000094010000940100009401000063
:100148009401000094010000940100009401000053
:100158009401000094010000940100009401000043
:100168009401000094010000940100009401000033
:100178009401000094010000940100009401000023
:100188009401000094010000940100009401000013
:100198009401000094010000940100009401000003
:1001a80094010000940100009401000094010000f3
:1001b80094010000940100009401000094010000e3
:1001c80094010000940100009401000094010000d3
:1001d80094010000940100009401000094010000c3
:1001e80094010000940100009401000094010000b3
:0801f8009401000094010000d5
:020000040000fa
:100200004f8220000eff20000e0188000000000039
:1002100000012000200288000c0007004039200067
:100220000100200011000700000020000000e00095
:100230000200320000000200000000002203020061
:10024000000000000040da000000fe004440a90069
:10025000000020000000e000030032000000200049
:10026000a00188004440a800000006009101880019
:10027000800078000000eb0015003700e2804000ad
:1002800032a0b4009101ba00e280400032a0b40074
:100290009102ba00e280400032a0b4000002eb00fc
:1002a000472bde00f507b200602ce10004003a00a5
:1002b0000059eb008301e900fdff3e000400370018
:1002c0006128e100010032000082eb000400070019
:1002d0001101ba000200e000e8ff3a000000060049
:1002e0003159ba008301e9000c0032002159ba00eb
:1002f0008301e900080032000400e00003003a0036
:10030000e280400032a0b400f5ff370011d9ba00f6
:100310008301e900faff3a008100e800e180400033
:1003200032a0b400000006000040da000000fe0029
:020000040000fa
:100330000200fa000042eb00044f78000200370090
:10034000000000001e4fe8001e427800f34f5200ec
:10035000fbff36000080fa00000006000400fa00ef
:1003600010079800070037000042eb00044f7800a8
:10037000010037001e4fe8001e427800f34f520084
:10038000fcff36001e02900004f0a7000402ea0001
:100390000402ea004f22de00044278009e02900030
:1003a0008502e90015079800e04f5200eeff3a0081
:1003b0000080fa00000006000400fa001007980010
:1003c000070037000042eb00044f780001003700bf
:1003d0001e4fe8001e427800f34f5200fcff36002b
:1003e0001e02900004f0a7000402ea000402ea00e2
:1003f0004f22de00044278009e0290008502e90050
:1004000015079800e04f5200eeff3a000080fa0016
:10041000000006000600fa00200798000002eb002a
:10042000040f78000b0037000002eb00140798005f
:10043000030037001e0290000402e8001407980031
:100440009e029000f47c2000848f5200f9ff360059
:100450001e0fe8002e0290009e027800848f52004a
:10046000f1ff39000080fa00000006000200fa00e7
:10047000c6e2a800d622a900d662a800d642a800eb
:1004800050002000b5ff070045168000040820003a
:1004900004826200e00f520002003a000042eb00ca
:1004a000044f7800d642a900c6e2a9001e42780097
:1004b000044078000080fa00000006000200fa0004
:1004c000004f7800d622a900d662a900d642a90022
:1004d000000000000000000000000000000000001c
:1004e0009e4278000582fb004416880050002000e0
:1004f0009aff0700d642a8005000200097ff07008f
:10050000d642a9000080fa00000006000200fa00ae
:10051000004f780004c8b3001e4272000440780007
:10052000e6ff07000080fa00000006000200fa0063
:10053000004f7800d622a800d662a900d642a900b2
:100540009e4278000582fb0044168800500020007f
:1005500082ff0700d642a800500020007fff07005e
:10056000d642a9000080fa00000006000000fa0050
:10057000dd02a900e001200078ff0700dd02a800ed
:10058000e001200075ff070080c3b300cbff070028
:100590002003200071ff0700c0c0b300c7ff0700a1
:1005a000200320006dff070060c0b300c3ff0700f9
:1005b0002003200069ff070010c0b300bfff070041
:1005c0002003200065ff07000080fa0000000600fd
:1005d0000000fa000600370000000000153a800015
:1005e0000402200004826200e00f5200fbff320090
:1005f000153a800004002300848262000400230076
:10060000848f5200f4ff3a000080fa0000000600d8
:100610000000fa000002eb00941688000002eb00d4
:10062000341688000002eb00441688000002eb003c
:10063000440e88000002eb00c41688000080fa0017
:10064000000006000200fa00e1ff0700f0ff0700cb
:10065000c6ff070060c0b30098ff07000040eb0032
:10066000aaff07000042eb00044f78000a003700a1
:100670001e4278008482fb00048020000482420035
:100680001442780004407800a8ff07001e4fe800dd
:10069000c012200031ff07001e4278008482fb0058
:1006a000048020000482420014427800e04f52008f
:1006b000efff3a0000c4b30094ff07000042eb00d4
:1006c000044f78000a0037001e4278008482fb0045
:1006d0002481200004824200144278000440780003
:1006e00092ff07001e4fe800c01220001bff07000a
:1006f0001e4278008482fb00248120000482420094
:1007000014427800e04f5200efff3a001e4fe8001d
:100710009e4278000582fb00d4168800803e2000af
:080720003cff0700f9ff370060
:020000040000fa
:100728000008000024000000020000002020200033
:100738002020200057656c00636f6d006520200045
:1007480020200000202020002020200020424f00f0
:100758004b45200020202000202000000000000041
:020000040000fa
:0200000401f009
:0400000007c3000032
:020000040000fa
:0200000401f009
:0400040000000000f8
:020000040000fa
:0200000401f009
:04000800a2830000cf
:020000040000fa
:0200000401f009
:04001400ffff0000ea
:00000001FF
