:020000040000fa
:080000000001040000000000f3
:020000040000fa
:100008009401000094010000940100009401000094
:100018009401000094010000940100009401000084
:100028009401000094010000940100009401000074
:100038009401000094010000940100009401000064
:10004800940100009401000094010000fc1d0000d0
:100058009401000094010000940100009401000044
:100068009401000094010000940100009401000034
:100078009401000094010000940100009401000024
:100088009401000094010000940100009401000014
:100098009401000094010000940100009401000004
:1000a80094010000940100009401000094010000f4
:1000b80094010000940100009401000094010000e4
:1000c80094010000940100009401000094010000d4
:1000d80094010000940100009401000094010000c4
:1000e80094010000940100009401000094010000b4
:0800f8009401000094010000d6
:020000040000fa
:100108009401000094010000940100009401000093
:100118009401000094010000940100009401000083
:100128009401000094010000940100009401000073
:100138009401000094010000940100009401000063
:10014800940100009401000094010000fc1d0000cf
:100158009401000094010000940100009401000043
:100168009401000094010000940100009401000033
:100178009401000094010000940100009401000023
:100188009401000094010000940100009401000013
:100198009401000094010000940100009401000003
:1001a80094010000940100009401000094010000f3
:1001b80094010000940100009401000094010000e3
:1001c80094010000940100009401000094010000d3
:1001d80094010000940100009401000094010000c3
:1001e80094010000940100009401000094010000b3
:0801f8009401000094010000d5
:020000040000fa
:100200002f8020000eff20000e018800000000005b
:1002100000012000200288000c000700a0e321005c
:100220000100200011000700000020000000e00095
:10023000020032000000020000000000301d020039
:10024000000000000040da000000fe004440a90069
:10025000008321000000e0000300320000002000c5
:10026000a00188004440a800000006009101880019
:10027000800078000000eb0015003700e2804000ad
:1002800032a0b4009101ba00e280400032a0b40074
:100290009102ba00e280400032a0b4000002eb00fc
:1002a000472bde00f507b200602ce10004003a00a5
:1002b0000059eb008301e900fdff3e000400370018
:1002c0006128e100010032000082eb000400070019
:1002d0001101ba000200e000e8ff3a000000060049
:1002e0003159ba008301e9000c0032002159ba00eb
:1002f0008301e900080032000400e00003003a0036
:10030000e280400032a0b400f5ff370011d9ba00f6
:100310008301e900faff3a008100e800e180400033
:1003200032a0b400000006000040da000000fe0029
:020000040000fa
:1003300000000000000000000000000000000000bd
:10034000002f000000000000000000000700000077
:1003500007000000001400007f1400007f1400005c
:10036000002400002a7f00002a1200000062000022
:100370006408000013230000003600004955000007
:1003800022500000000000000503000000000000f3
:10039000000000001c2200004100000000000000de
:1003a000412200001c00000000140000083e000074
:1003b0000814000000080000083e000008080000c3
:1003c0000000000000a00000600000000008000025
:1003d000080800000808000000000000606000003d
:1003e00000000000002000001008000004020000cf
:1003f000003e000051490000453e000000000000a2
:10040000427f0000400000000042000061510000f7
:100410004946000000210000414500004b3100002a
:1004200000180000141200007f10000000270000d8
:100430004545000045390000003c00004a490000e5
:1004400049300000000100007109000005030000b0
:10045000003600004949000049360000000600004f
:1004600049490000291e0000000000003636000047
:1004700000000000000000005636000000000000f0
:1004800000080000142200004100000000140000d9
:1004900014140000141400000000000041220000a9
:1004a00014080000000200000151000009060000cd
:1004b0000032000049590000513e0000007c00005d
:1004c00012110000127c0000007f0000494900006a
:1004d00049360000003e000041410000412200007a
:1004e000007f000041410000221c0000007f00004e
:1004f0004949000049410000007f0000090900004f
:1005000009010000003e000041490000497a000056
:10051000007f000008080000087f000000000000c5
:10052000417f000041000000002000004041000029
:100530003f010000007f000008140000224100007d
:10054000007f00004040000040400000007f0000ad
:10055000020c0000027f0000007f00000408000081
:10056000107f0000003e000041410000413e0000bd
:10057000007f00000909000009060000003e00009d
:1005800041510000215e0000007f000009190000b9
:10059000294600000046000049490000493100009a
:1005a00000010000017f000001010000003f000089
:1005b00040400000403f0000001f000020400000bd
:1005c000201f0000003f000040380000403f0000b6
:1005d000006300001408000014630000000700001e
:1005e0000870000008070000006100005149000089
:1005f00045430000000000007f4100004100000072
:10060000005500002a5500002a5500000000000097
:10061000414100007f0000000004000002010000d2
:100620000204000000400000404000004040000084
:100630000000000001020000040000000020000093
:100640005454000054780000007f0000484400002b
:1006500044380000003800004444000044200000fa
:100660000038000044440000487f000000380000cb
:100670005454000054180000000800007e090000d7
:100680000102000000180000a4a40000a47c0000e7
:10069000007f000008040000047800000000000053
:1006a000447d000040000000004000008084000005
:1006b0007d000000007f00001028000044000000c2
:1006c00000000000417f000040000000007c0000ae
:1006d0000418000004780000007c000008040000fa
:1006e0000478000000380000444400004438000052
:1006f00000fc000024240000241800000018000062
:100700002424000018fc0000007c00000804000005
:100710000408000000480000545400005420000069
:10072000000400003f44000040200000003c0000a6
:1007300040400000207c0000001c00002040000021
:10074000201c0000003c000040300000403c000045
:10075000004400002810000028440000001c000095
:10076000a0a00000a07c0000004400006454000031
:100770004c44000014140000141400001414000071
:100780000000000007f0000008080000100400004e
:10079000100400000808000007f00000000000003e
:1007a0000000000008040000080400001ffc000016
:1007b0000004000000040000000000000000000031
:1007c000000000000e0c00001014000010240000b7
:1007d00010440000118400000e0c00000000000016
:1007e000000000000c1800001004000011040000bc
:1007f00011040000128800000c70000000000000ce
:100800000000000000e000000320000004240000bd
:10081000082400001ffc000000240000000000006d
:10082000000000001f980000108400001104000068
:10083000110400001088000010700000000000008b
:100840000000000007f0000008880000110400000c
:100850001104000018880000007000000000000073
:10086000000000001c0000001000000010fc000050
:10087000130000001c000000100000000000000039
:10088000000000000e380000114400001084000039
:1008900010840000114400000e3800000000000029
:1008a0000000000007000000088c00001044000059
:1008b000104400000888000007f00000000000005d
:1008c0000000000000000000000000000000000028
:1008d0000000000000000000000000000000000018
:1008e0000000000000000000000000001fcc00001d
:1008f000000c0000000000000000000000000000ec
:10090000000000000800000030000000600000004f
:10091000080000003000000060000000000000003f
:100920000220000003fc00001e2000000220000046
:1009300003fc00001e200000022000000000000058
:10094000000000000e180000110400003fff00002e
:10095000108400000c78000000000000000000007f
:100960000f000000108400000f38000000c00000dd
:1009700007780000188400000078000000000000e4
:10098000007800000f84000010c400001124000053
:100990000e98000000e40000008400000008000041
:1009a0000800000068000000700000000000000067
:1009b0000000000000000000000000000000000037
:1009c00000000000000000000000000007e0000040
:1009d0001818000020040000400200000000000081
:1009e0000000000040020000200400001818000071
:1009f00007e0000000000000000000000000000010
:100a00000240000002400000018000000ff00000e2
:100a100001800000024000000240000000000000d1
:100a20000080000000800000008000000ff800003f
:100a30000080000000800000008000000000000036
:100a400000010000000d0000000e0000000000008a
:100a50000000000000000000000000000000000096
:100a60000000000000800000008000000080000006
:100a70000080000000800000008000000080000076
:100a800000000000000c0000000c0000000000004e
:100a90000000000000000000000000000000000056
:100aa00000000000000600000018000000600000c8
:100ab0000180000006000000180000002000000077
:100ac000000000000000000000000000030c000017
:100ad000030c000000000000000000000000000007
:100ae00000000000000000000001000001060000fe
:100af00000000000000000000000000000000000f6
:100b00000000000000800000014000000220000002
:100b1000041000000808000010040000000000009d
:100b2000022000000220000002200000022000003d
:100b3000022000000220000002200000000000004f
:100b4000000000001004000008080000041000006d
:100b500002200000014000000080000000000000b2
:100b6000000000000e00000012000000100c000049
:100b7000106c0000108000000f000000000000005a
:100b800003e000000c18000013e40000142400002f
:100b900017c400000828000007d000000000000073
:100ba00000040000003c000003c400001c400000e2
:100bb0000740000000e40000001c000000040000ea
:100bc000100400001ffc00001104000011040000cc
:100bd000110400000e8800000070000000000000fa
:100be00003e000000c1800001004000010040000d6
:100bf00010040000100800001c100000000000009d
:100c0000100400001ffc000010040000100400008d
:100c1000100400000808000007f0000000000000b9
:100c2000100400001ffc000011040000110400006b
:100c300017c40000100400000818000000000000a5
:100c4000100400001ffc000011040000110000004f
:100c500017c00000100000000800000000000000a5
:100c600003e000000c180000100400001004000055
:100c7000104400001c78000000400000000000004c
:100c8000100400001ffc0000108400000080000021
:100c900000800000108400001ffc00001004000011
:100ca0000000000010040000100400001ffc000001
:100cb000100400001004000000000000000000000c
:100cc00000030000000100001001000010010000fe
:100cd0001ffe0000100000001000000000000000d7
:100ce000100400001ffc000011040000038000003d
:100cf00014640000181c0000100400000000000034
:100d0000100400001ffc000010040000000400009c
:100d10000004000000040000000c000000000000bf
:100d2000100400001ffc00001f00000000fc000079
:100d30001f0000001ffc0000100400000000000065
:100d4000100400001ffc00000c0400000300000061
:100d500000e00000101800001ffc00001000000060
:100d600007f0000008080000100400001004000054
:100d7000100400000808000007f000000000000058
:100d8000100400001ffc0000108400001080000010
:100d900010800000108000000f0000000000000024
:100da00007f00000081800001024000010240000c4
:100db000101c0000080a000007f2000000000000fc
:100dc000100400001ffc00001104000011000000ce
:100dd00011c00000113000000e0c000000040000e3
:100de000000000000e1c0000110400001084000030
:100df00010840000104400001c38000000000000b7
:100e00001800000010000000100400001ffc00008b
:100e10001004000010000000180000000000000096
:100e2000100000001ff80000100400000004000083
:100e300000040000100400001ff800001000000073
:100e4000100000001e00000011e00000001c000067
:100e500000700000138000001c0000001000000063
:100e60001fc00000103c000000e000001f00000058
:100e700000e00000103c00001fc000000000000067
:100e800010040000180c00001634000001c000001f
:100e900001c0000016340000180c0000100400000f
:100ea000100000001c0000001304000000fc000003
:100eb000130400001c0000001000000000000000ef
:100ec00008040000101c00001064000010840000e2
:100ed000130400001c0400001018000000000000b3
:100ee0000000000000000000000000007ffe000085
:100ef000400200004002000040020000000000002c
:100f000000000000300000000c0000000380000022
:100f100000600000001c0000000300000000000052
:100f200000000000400200004002000040020000fb
:100f30007ffe000000000000000000000000000034
:100f40000000000000000000200000004000000041
:100f500040000000400000002000000000000000f1
:100f6000000100000001000000010000000100007d
:100f7000000100000001000000010000000100006d
:100f800000000000400000004000000020000000c1
:100f90000000000000000000000000000000000051
:100fa000000000000098000001240000014400003f
:100fb000014400000144000000fc000000040000a7
:100fc000100000001ffc0000008800000104000069
:100fd0000104000000880000007000000000000014
:100fe0000000000000700000008800000104000004
:100ff000010400000104000000880000000000005f
:1010000000000000007000000088000001040000e3
:1010100001040000110800001ffc00000004000093
:101020000000000000f8000001440000014400003e
:10103000014400000144000000c80000000000005e
:101040000000000001040000010400000ffc00008b
:10105000110400001104000011000000180000003d
:101060000000000000d60000012900000129000056
:101070000129000001c90000010600000000000075
:10108000100400001ffc00000084000001000000ac
:10109000010000000104000000fc0000000400004a
:1010a00000000000010400001904000019fc000009
:1010b0000004000000040000000000000000000028
:1010c000000000000003000000010000010100001a
:1010d0001901000019fe00000000000000000000df
:1010e000100400001ffc000000240000004000006d
:1010f00001b40000010c0000010400000000000029
:101100000000000010040000100400001ffc00009c
:1011100000040000000400000000000000000000c7
:101120000104000001fc00000104000001000000b7
:1011300001fc0000010400000100000000fc0000b0
:101140000104000001fc0000008400000100000018
:10115000010000000104000000fc00000004000089
:101160000000000000f8000001040000010400007d
:10117000010400000104000000f80000000000006d
:101180000101000001ff00000085000001040000d3
:101190000104000000880000007000000000000052
:1011a0000000000000700000008800000104000042
:1011b000010400000105000001ff00000001000023
:1011c000010400000104000001fc00000084000094
:1011d0000104000001000000018000000000000088
:1011e0000000000000cc00000124000001240000e9
:1011f000012400000124000001980000000000000c
:1012000000000000010000000100000007f80000dd
:1012100001040000010400000000000000000000c4
:101220000100000001f800000004000000040000bc
:10123000000400000108000001fc000000040000a0
:10124000010000000180000001700000000c00009f
:10125000001000000160000001800000010000009b
:1012600001f00000010c00000030000001c000008f
:1012700000300000010c000001f00000010000003f
:101280000000000001040000018c00000074000058
:1012900001700000018c000001040000000000004b
:1012a000010100000181000001710000000e00003a
:1012b0000018000001600000018000000100000033
:1012c0000000000001840000010c00000134000057
:1012d0000144000001840000010c00000000000037
:1012e00000000000000000000000000000000000fe
:1012f000010000003efc000040020000400200002f
:1013000000000000000000000000000000000000dd
:10131000ffff0000000000000000000000000000cf
:101320000000000040020000400200003efc0000ff
:1013300001000000000000000000000000000000ac
:10134000000000006000000080000000800000003d
:1013500040000000400000002000000020000000cd
:10136000000000000000000000000000000000007d
:10137000000000000000000000000000000000006d
:10138000000000000000000000000000000000005d
:10139000000000000000000000000000000000004d
:1013a000000000000000000000000000000000003d
:1013b000000000000000000000000000000000002d
:1013c000000000000000000000000000000000001d
:1013d000000000000000000000000000000000000d
:1013e00000000000000000000000000000000000fd
:1013f00000000000000000000000000000000000ed
:1014000000000000000000000000000000000000dc
:1014100000000000000000000000000000000000cc
:1014200000000000000000000000000000000000bc
:1014300000000000000000000000000000000000ac
:10144000000000000000000000000000000000009c
:10145000000000000000000000000000000000008c
:10146000000000000000000000000000000000007c
:10147000000000000000000000000000000000006c
:10148000000000000000000000000000000000005c
:10149000000000000000000000000000000000004c
:1014a000000000000000000000000000000000003c
:1014b000000000000000000000000000000000002c
:1014c000000000000000000000000000008000009c
:1014d000808000000080000080000000000000000c
:1014e00000000000000000000000000000000000fc
:1014f00000000000000000000000000000000000ec
:1015000000000000000000000000000000000000db
:1015100000000000808000008080000080800000cb
:1015200000000000000000000000000000000000bb
:1015300000000000000000000000000000000000ab
:10154000000000000000000000000000000000009b
:10155000000000000000000000000000000000008b
:10156000000000000000000000000000000000007b
:1015700000000000000000007c8600008282000065
:10158000c64c00000000000000fe00000602000043
:1015900004fe0000040000000000000082fe0000c5
:1015a000c2800000800000000000000000820000f7
:1015b000fefe0000020000000000000082fe0000ad
:1015c0008280000082fe0000020000000061000036
:1015d000ff14000094f40000e70300000000000086
:1015e00000000000000000000000000000000000fb
:1015f0000000000002fe00000602000000000000e3
:101600000000000000820000fe0200000000000058
:1016100000000000e7fe000014940000f4870000c2
:101620000000000000fe0000c280000080fe0000fc
:101630007e0000000000000000fe000086020000a6
:101640000400000000000000000000000000000096
:10165000000000000000000000000000000000008a
:10166000000000000000000000000000000000007a
:10167000000000000000000000000000000000006a
:10168000000000000000000000000000000000005a
:10169000000000000000000000000000000000004a
:1016a000000000000000000000000000000000003a
:1016b0000c0d000000000000000000000000000011
:1016c000000000000000000000000000000000001a
:1016d0000001000001000000000000000000000008
:1016e00000000000000000000000000000000000fa
:1016f00000000000040f00000000000000000000d7
:1017000000000000000c00000d00000000000000c0
:1017100000000000000000000101000000000000c7
:1017200000000000000f00000000000000000000aa
:1017300000000000000000000003000001000000a5
:101740000000000000000000000000000000000099
:101750000000000000000000000000000000000089
:10176000000000000000000000100000f0f0000089
:1017700010000000000000000000000010f0000059
:10178000101000000000000000e00000f010000059
:1017900010100000fc0000000000000000f000003d
:1017a0001010000030f000001000000000000000e9
:1017b00010f00000101000000000000000e0000029
:1017c000f010000010300000f010000000000000d9
:1017d0000000000000000000000000000000000009
:1017e00000e0000030100000103000006000000039
:1017f0000000000010f000001010000000000000c9
:101800000000000004860000e4780000c000000032
:10181000000000000000000030900000d0f0000048
:10182000200000000000000000f00000f0100000a8
:10183000100000000000000070d0000090b0000018
:10184000f0100000000000000000000010f0000098
:10185000f010000000000000000000000000000088
:101860000000000000000000002000003f3f0000da
:1018700000000000000000000000000004670000fd
:1018800060000000000000000001000007040000ec
:101890000004000007000000000000000407000032
:1018a000000000000407000000000000000000002d
:1018b000046700006000000000000000000300005a
:1018c00007040000202400007f000000000000004a
:1018d0000000000000000000000000000000000008
:1018e00000030000040400000406000002000000e1
:1018f00000000000040700000704000004000000ce
:1019000000000000040700000500000005060000bc
:1019100004000000000000000701000004060000b1
:101920000000000000000000000f00001f00000089
:10193000000000000000000002060000000500009a
:10194000070000000000000000000000203f000031
:101950003f00000000000000000000000000000048
:101960000000000000000000000000000000000077
:101970000000000000000000000000000000000067
:1019800000200000e02000000000000020e0000037
:1019900020200000c0000000202000000000000007
:1019a0000000000000f0000020200000c000000047
:1019b000e020000020e000002000000000200000e7
:1019c000e02000000000000000e000002000000017
:1019d00000000000c0600000202000004000000067
:1019e00020e0000000200000e000000018f80000e7
:1019f000a0a800003000000000600000e02000000f
:101a0000000000000020000020c0000000000000d6
:101a10000020000020600000c000000000e0000086
:101a200020600000c000000000600000e020000016
:101a30000000000000200000204000000000000026
:101a40000000000000000000000000000000000096
:101a50000000000000000000000000000000000086
:101a60000000000000000000000000000000000076
:101a70000000000000000000000000000000000066
:101a8000000800000f08000000000000000f000028
:101a9000080800000700000002020000000000002b
:101aa000000000000003000002020000030000002c
:101ab000010200000203000000000000000000001e
:101ac0001b00000000000000020f000012100000c8
:101ad00008000000010300000103000001000000f5
:101ae00002030000020200000100000001030000e8
:101af000020300000200000000080000110f0000b7
:101b000000000000000e00000a0b000000000000b2
:101b100000100000121f000001000000000700007c
:101b20000a1300000100000000080000110f00006f
:101b300000000000000e00000a0b00000000000082
:101b40000000000000000000000000000000000095
:101b50000000000000000000000000000000000085
:101b60000000000000000000000000000000000075
:101b7000002f00000000000000000000070000002f
:101b800007000000001400007f1400007f14000014
:101b9000002400002a7f00002a12000000620000da
:101ba00064080000132300000036000049550000bf
:101bb00022500000000000000503000000000000ab
:101bc000000000001c220000410000000000000096
:101bd000412200001c00000000140000083e00002c
:101be0000814000000080000083e0000080800007b
:101bf0000000000000a000006000000000080000dd
:101c000008080000080800000000000060600000f4
:101c10000000000000200000100800000402000086
:101c2000003e000051490000453e00000000000059
:101c3000427f0000400000000042000061510000af
:101c40004946000000210000414500004b310000e2
:101c500000180000141200007f1000000027000090
:101c60004545000045390000003c00004a4900009d
:101c70004930000000010000710900000503000068
:101c80000036000049490000493600000006000007
:101c900049490000291e00000000000036360000ff
:101ca00000000000000000005636000000000000a8
:101cb0000008000014220000410000000014000091
:101cc0001414000014140000000000004122000061
:101cd0001408000000020000015100000906000085
:101ce0000032000049590000513e0000007c000015
:101cf00012110000127c0000007f00004949000022
:101d000049360000003e0000414100004122000031
:101d1000007f000041410000221c0000007f000005
:101d20004949000049410000007f00000909000006
:101d300009010000003e000041490000497a00000e
:101d4000007f000008080000087f0000000000007d
:101d5000417f0000410000000020000040410000e1
:101d60003f010000007f0000081400002241000035
:101d7000007f00004040000040400000007f000065
:101d8000020c0000027f0000007f00000408000039
:101d9000107f0000003e000041410000413e000075
:101da000007f00000909000009060000003e000055
:101db00041510000215e0000007f00000919000071
:101dc0002946000000460000494900004931000052
:101dd00000010000017f000001010000003f000041
:101de00040400000403f0000001f00002040000075
:101df000201f0000003f000040380000403f00006e
:101e000000630000140800001463000000070000d5
:101e10000870000008070000006100005149000040
:101e200045430000000000007f4100004100000029
:101e3000005500002a5500002a550000000000004f
:101e4000414100007f00000000040000020100008a
:101e5000020400000040000040400000404000003c
:101e6000000000000102000004000000002000004b
:101e70005454000054780000007f000048440000e3
:101e800044380000003800004444000044200000b2
:101e90000038000044440000487f00000038000083
:101ea0005454000054180000000800007e0900008f
:101eb0000102000000180000a4a40000a47c00009f
:101ec000007f00000804000004780000000000000b
:101ed000447d0000400000000040000080840000bd
:101ee0007d000000007f000010280000440000007a
:101ef00000000000417f000040000000007c000066
:101f00000418000004780000007c000008040000b1
:101f10000478000000380000444400004438000009
:101f200000fc000024240000241800000018000019
:101f30002424000018fc0000007c000008040000bd
:101f40000408000000480000545400005420000021
:101f5000000400003f44000040200000003c00005e
:101f600040400000207c0000001c000020400000d9
:101f7000201c0000003c000040300000403c0000fd
:101f8000004400002810000028440000001c00004d
:101f9000a0a00000a07c00000044000064540000e9
:101fa0004c44000014140000141400001414000029
:101fb0000000000007f00000080800001004000006
:101fc000100400000808000007f0000000000000f6
:101fd0000000000008040000080400001ffc0000ce
:101fe00000040000000400000000000000000000e9
:101ff000000000000e0c000010140000102400006f
:1020000010440000118400000e0c000000000000cd
:10201000000000000c180000100400001104000073
:1020200011040000128800000c7000000000000085
:102030000000000000e00000032000000424000075
:10204000082400001ffc0000002400000000000025
:10205000000000001f980000108400001104000020
:102060001104000010880000107000000000000043
:102070000000000007f000000888000011040000c4
:10208000110400001888000000700000000000002b
:10209000000000001c0000001000000010fc000008
:1020a000130000001c0000001000000000000000f1
:1020b000000000000e3800001144000010840000f1
:1020c00010840000114400000e38000000000000e1
:1020d0000000000007000000088c00001044000011
:1020e000104400000888000007f000000000000015
:1020f00000000000000000000000000000000000e0
:1021000000000000000000000000000000000000cf
:102110000000000000000000000000001fcc0000d4
:10212000000c0000000000000000000000000000a3
:102130000000000008000000300000006000000007
:1021400008000000300000006000000000000000f7
:102150000220000003fc00001e20000002200000fe
:1021600003fc00001e200000022000000000000010
:10217000000000000e180000110400003fff0000e6
:10218000108400000c780000000000000000000037
:102190000f000000108400000f38000000c0000095
:1021a000077800001884000000780000000000009c
:1021b000007800000f84000010c40000112400000b
:1021c0000e98000000e400000084000000080000f9
:1021d000080000006800000070000000000000001f
:1021e00000000000000000000000000000000000ef
:1021f00000000000000000000000000007e00000f8
:102200001818000020040000400200000000000038
:102210000000000040020000200400001818000028
:1022200007e00000000000000000000000000000c7
:102230000240000002400000018000000ff000009a
:102240000180000002400000024000000000000089
:102250000080000000800000008000000ff80000f7
:1022600000800000008000000080000000000000ee
:1022700000010000000d0000000e00000000000042
:10228000000000000000000000000000000000004e
:1022900000000000008000000080000000800000be
:1022a000008000000080000000800000008000002e
:1022b00000000000000c0000000c00000000000006
:1022c000000000000000000000000000000000000e
:1022d0000000000000060000001800000060000080
:1022e000018000000600000018000000200000002f
:1022f000000000000000000000000000030c0000cf
:10230000030c0000000000000000000000000000be
:1023100000000000000000000001000001060000b5
:1023200000000000000000000000000000000000ad
:1023300000000000008000000140000002200000ba
:102340000410000008080000100400000000000055
:1023500002200000022000000220000002200000f5
:102360000220000002200000022000000000000007
:102370000000000010040000080800000410000025
:10238000022000000140000000800000000000006a
:10239000000000000e00000012000000100c000001
:1023a000106c0000108000000f0000000000000012
:1023b00003e000000c18000013e4000014240000e7
:1023c00017c400000828000007d00000000000002b
:1023d00000040000003c000003c400001c4000009a
:1023e0000740000000e40000001c000000040000a2
:1023f000100400001ffc0000110400001104000084
:10240000110400000e8800000070000000000000b1
:1024100003e000000c18000010040000100400008d
:1024200010040000100800001c1000000000000054
:10243000100400001ffc0000100400001004000045
:10244000100400000808000007f000000000000071
:10245000100400001ffc0000110400001104000023
:1024600017c400001004000008180000000000005d
:10247000100400001ffc0000110400001100000007
:1024800017c000001000000008000000000000005d
:1024900003e000000c18000010040000100400000d
:1024a000104400001c780000004000000000000004
:1024b000100400001ffc00001084000000800000d9
:1024c00000800000108400001ffc000010040000c9
:1024d0000000000010040000100400001ffc0000b9
:1024e00010040000100400000000000000000000c4
:1024f00000030000000100001001000010010000b6
:102500001ffe00001000000010000000000000008e
:10251000100400001ffc00001104000003800000f4
:1025200014640000181c00001004000000000000eb
:10253000100400001ffc0000100400000004000054
:102540000004000000040000000c00000000000077
:10255000100400001ffc00001f00000000fc000031
:102560001f0000001ffc000010040000000000001d
:10257000100400001ffc00000c0400000300000019
:1025800000e00000101800001ffc00001000000018
:1025900007f000000808000010040000100400000c
:1025a000100400000808000007f000000000000010
:1025b000100400001ffc00001084000010800000c8
:1025c00010800000108000000f00000000000000dc
:1025d00007f000000818000010240000102400007c
:1025e000101c0000080a000007f2000000000000b4
:1025f000100400001ffc0000110400001100000086
:1026000011c00000113000000e0c0000000400009a
:10261000000000000e1c00001104000010840000e7
:1026200010840000104400001c380000000000006e
:102630001800000010000000100400001ffc000043
:10264000100400001000000018000000000000004e
:10265000100000001ff8000010040000000400003b
:1026600000040000100400001ff80000100000002b
:10267000100000001e00000011e00000001c00001f
:1026800000700000138000001c000000100000001b
:102690001fc00000103c000000e000001f00000010
:1026a00000e00000103c00001fc00000000000001f
:1026b00010040000180c00001634000001c00000d7
:1026c00001c0000016340000180c000010040000c7
:1026d000100000001c0000001304000000fc0000bb
:1026e000130400001c0000001000000000000000a7
:1026f00008040000101c000010640000108400009a
:10270000130400001c04000010180000000000006a
:102710000000000000000000000000007ffe00003c
:1027200040020000400200004002000000000000e3
:1027300000000000300000000c00000003800000da
:1027400000600000001c000000030000000000000a
:1027500000000000400200004002000040020000b3
:102760007ffe0000000000000000000000000000ec
:1027700000000000000000002000000040000000f9
:1027800040000000400000002000000000000000a9
:102790000001000000010000000100000001000035
:1027a0000001000000010000000100000001000025
:1027b0000000000040000000400000002000000079
:1027c0000000000000000000000000000000000009
:1027d00000000000009800000124000001440000f7
:1027e000014400000144000000fc0000000400005f
:1027f000100000001ffc0000008800000104000021
:1028000001040000008800000070000000000000cb
:1028100000000000007000000088000001040000bb
:102820000104000001040000008800000000000016
:10283000000000000070000000880000010400009b
:1028400001040000110800001ffc0000000400004b
:102850000000000000f800000144000001440000f6
:10286000014400000144000000c800000000000016
:102870000000000001040000010400000ffc000043
:1028800011040000110400001100000018000000f5
:102890000000000000d6000001290000012900000e
:1028a0000129000001c9000001060000000000002d
:1028b000100400001ffc0000008400000100000064
:1028c000010000000104000000fc00000004000002
:1028d00000000000010400001904000019fc0000c1
:1028e00000040000000400000000000000000000e0
:1028f00000000000000300000001000001010000d2
:102900001901000019fe0000000000000000000096
:10291000100400001ffc0000002400000040000024
:1029200001b40000010c00000104000000000000e0
:102930000000000010040000100400001ffc000054
:10294000000400000004000000000000000000007f
:102950000104000001fc000001040000010000006f
:1029600001fc0000010400000100000000fc000068
:102970000104000001fc00000084000001000000d0
:10298000010000000104000000fc00000004000041
:102990000000000000f80000010400000104000035
:1029a000010400000104000000f800000000000025
:1029b0000101000001ff000000850000010400008b
:1029c000010400000088000000700000000000000a
:1029d00000000000007000000088000001040000fa
:1029e000010400000105000001ff000000010000db
:1029f000010400000104000001fc0000008400004c
:102a0000010400000100000001800000000000003f
:102a10000000000000cc00000124000001240000a0
:102a200001240000012400000198000000000000c3
:102a300000000000010000000100000007f8000095
:102a4000010400000104000000000000000000007c
:102a50000100000001f80000000400000004000074
:102a6000000400000108000001fc00000004000058
:102a7000010000000180000001700000000c000057
:102a80000010000001600000018000000100000053
:102a900001f00000010c00000030000001c0000047
:102aa00000300000010c000001f0000001000000f7
:102ab0000000000001040000018c00000074000010
:102ac00001700000018c0000010400000000000003
:102ad000010100000181000001710000000e0000f2
:102ae00000180000016000000180000001000000eb
:102af0000000000001840000010c0000013400000f
:102b00000144000001840000010c000000000000ee
:102b100000000000000000000000000000000000b5
:102b2000010000003efc00004002000040020000e6
:102b30000000000000000000000000000000000095
:102b4000ffff000000000000000000000000000087
:102b50000000000040020000400200003efc0000b7
:102b60000100000000000000000000000000000064
:102b700000000000600000008000000080000000f5
:102b80004000000040000000200000002000000085
:102b90000000000000000000000000000000000035
:102ba0000000000000000000000000000000000025
:102bb0000000000000000000000000000000000015
:102bc0000000000000000000000000000000000005
:102bd00000000000000000000000000000000000f5
:102be00000000000000000000000000000000000e5
:102bf00000000000000000000000000000000000d5
:102c000000000000000000000000000000000000c4
:102c100000000000000000000000000000000000b4
:102c200000000000000000000000000000000000a4
:102c30000000000000000000000000000000000094
:102c40000000000000000000000000000000000084
:102c50000000000000000000000000000000000074
:102c60000000000000000000000000000000000064
:102c70000000000000000000000000000000000054
:102c80000000000000000000000000000000000044
:102c90000000000000000000000000000000000034
:102ca0000000000000000000000000000000000024
:102cb0000000000000000000000000000000000014
:102cc0000000000000000000000000000000000004
:102cd00000000000000000000000000000000000f4
:102ce00000000000000000000000000000000000e4
:102cf0000000000000000000000000000080000054
:102d000080800000008000008000000000000000c3
:102d100000000000000000000000000000000000b3
:102d200000000000000000000000000000000000a3
:102d30000000000000000000000000000000000093
:102d40000000000080800000808000008080000083
:102d50000000000000000000000000000000000073
:102d60000000000000000000000000000000000063
:102d70000000000000000000000000000000000053
:102d80000000000000000000000000000000000043
:102d90000000000000000000000000000000000033
:102da00000000000000000007c860000828200001d
:102db000c64c00000000000000fe000006020000fb
:102dc00004fe0000040000000000000082fe00007d
:102dd000c2800000800000000000000000820000af
:102de000fefe0000020000000000000082fe000065
:102df0008280000082fe00000200000000610000ee
:102e0000ff14000094f40000e7030000000000003d
:102e100000000000000000000000000000000000b2
:102e20000000000002fe000006020000000000009a
:102e30000000000000820000fe0200000000000010
:102e400000000000e7fe000014940000f48700007a
:102e50000000000000fe0000c280000080fe0000b4
:102e60007e0000000000000000fe0000860200005e
:102e7000040000000000000000000000000000004e
:102e80000000000000000000000000000000000042
:102e90000000000000000000000000000000000032
:102ea0000000000000000000000000000000000022
:102eb0000000000000000000000000000000000012
:102ec0000000000000000000000000000000000002
:102ed00000000000000000000000000000000000f2
:102ee0000c0d0000000000000000000000000000c9
:102ef00000000000000000000000000000000000d2
:102f000000010000010000000000000000000000bf
:102f100000000000000000000000000000000000b1
:102f200000000000040f000000000000000000008e
:102f300000000000000c00000d0000000000000078
:102f4000000000000000000001010000000000007f
:102f500000000000000f0000000000000000000062
:102f6000000000000000000000030000010000005d
:102f70000000000000000000000000000000000051
:102f80000000000000000000000000000000000041
:102f9000000000000000000000100000f0f0000041
:102fa00010000000000000000000000010f0000011
:102fb000101000000000000000e00000f010000011
:102fc00010100000fc0000000000000000f00000f5
:102fd0001010000030f000001000000000000000a1
:102fe00010f00000101000000000000000e00000e1
:102ff000f010000010300000f01000000000000091
:1030000000000000000000000000000000000000c0
:1030100000e00000301000001030000060000000f0
:103020000000000010f00000101000000000000080
:103030000000000004860000e4780000c0000000ea
:10304000000000000000000030900000d0f0000000
:10305000200000000000000000f00000f010000060
:10306000100000000000000070d0000090b00000d0
:10307000f0100000000000000000000010f0000050
:10308000f010000000000000000000000000000040
:103090000000000000000000002000003f3f000092
:1030a00000000000000000000000000004670000b5
:1030b00060000000000000000001000007040000a4
:1030c00000040000070000000000000004070000ea
:1030d00000000000040700000000000000000000e5
:1030e0000467000060000000000000000003000012
:1030f00007040000202400007f0000000000000002
:1031000000000000000000000000000000000000bf
:103110000003000004040000040600000200000098
:103120000000000004070000070400000400000085
:103130000000000004070000050000000506000074
:103140000400000000000000070100000406000069
:103150000000000000000000000f00001f00000041
:103160000000000000000000020600000005000052
:10317000070000000000000000000000203f0000e9
:103180003f00000000000000000000000000000000
:10319000000000000000000000000000000000002f
:1031a000000000000000000000000000000000001f
:1031b00000200000e02000000000000020e00000ef
:1031c00020200000c00000002020000000000000bf
:1031d0000000000000f0000020200000c0000000ff
:1031e000e020000020e0000020000000002000009f
:1031f000e02000000000000000e0000020000000cf
:1032000000000000c060000020200000400000001e
:1032100020e0000000200000e000000018f800009e
:10322000a0a800003000000000600000e0200000c6
:10323000000000000020000020c00000000000008e
:103240000020000020600000c000000000e000003e
:1032500020600000c000000000600000e0200000ce
:1032600000000000002000002040000000000000de
:10327000000000000000000000000000000000004e
:10328000000000000000000000000000000000003e
:10329000000000000000000000000000000000002e
:1032a000000000000000000000000000000000001e
:1032b000000800000f08000000000000000f0000e0
:1032c00008080000070000000202000000000000e3
:1032d00000000000000300000202000003000000e4
:1032e00001020000020300000000000000000000d6
:1032f0001b00000000000000020f00001210000080
:1033000008000000010300000103000001000000ac
:10331000020300000202000001000000010300009f
:10332000020300000200000000080000110f00006e
:1033300000000000000e00000a0b0000000000006a
:1033400000100000121f0000010000000007000034
:103350000a1300000100000000080000110f000027
:1033600000000000000e00000a0b0000000000003a
:10337000000000000000000000000000000000004d
:10338000000000000000000000000000000000003d
:020000040000fa
:103390000400fa0020479800314798003e42900010
:1033a000e04f520002003200ca42a800010037007c
:1033b000ca42a900ca22a9000042eb00044f7800cb
:1033c0000c003700cb02a9002e429000e04f5200c3
:1033d00002003d00cae2a80001003700cae2a900cd
:1033e000cb02a8002e4290000442420024479800dd
:1033f0001e4fe8001e427800e74f5200f1ff3600f2
:10340000ca22a800ca42a8000080fa0000000600f4
:103410000200fa00004f7800114798009e42900089
:1034200004cbb30004c242008040eb0004407800ab
:10343000d7ff07009e4278000582fb004422de0091
:10344000044278000444a0008040eb00044078006f
:10345000cfff07001e4278006e4262000404a00005
:103460008040eb0004407800c9ff07000080fa00ac
:10347000000006000000fa008040eb00d0c8b30056
:10348000c3ff07008040eb0040c1b300c0ff07004e
:103490008040eb00f0cab300bdff07000080fa00d7
:1034a000000006000000fa008040eb00d0c8b30026
:1034b000b7ff07008040eb0000c1b300b4ff070076
:1034c0008040eb00e0cab300b1ff07000080fa00c3
:1034d000000006000200fa000042eb00044f7800f2
:1034e0001800370004cbb3001e4242008040eb00be
:1034f00004407800a6ff07008040eb000040eb008e
:10350000a3ff07008040eb0000c1b300a0ff07004d
:103510000042eb00144798000600370011c0b300ca
:103520000040eb009aff07001e4290000442e800b2
:10353000144798001e429000e04f5200f7ff3d00f4
:103540001e4fe8001e427800e74f5200e5ff3600ac
:103550000080fa00000006000600fa0020479800ec
:1035600031479800424798003e4290000442420092
:1035700075cbb30004c252008040eb0004407800d9
:1035800083ff07002e4290000482fb00610262006c
:1035900004427800e04f5200040032008040eb000b
:1035a00080c0b3007aff0700030037008040eb00c3
:1035b0000040eb0076ff07002e4290000482fb00e3
:1035c0000402d10004427800704242008040eb00c7
:1035d000044078006eff07000042eb00044f7800c3
:1035e0000d00370085fd28004e4290000482fb004c
:1035f0004423dd009e4378000782fb000402430061
:10360000048242001442780011c0b30004407800e4
:103610005fff07001ecfe8001e427800ef4f520008
:10362000f0ff36003e4290000442420065cbb300fa
:1036300004c252008040eb000440780054ff0700b1
:103640002e4290000482fb00610262000442780076
:10365000e04f5200040032008040eb0080c0b30015
:103660004bff0700030037008040eb000040eb00f9
:1036700047ff07002e4290000482fb000402d100a5
:1036800004427800704242008040eb000440780021
:103690003fff070014c0b300044f78000d0037004f
:1036a00085fd28004e4290000482fb004423dd008b
:1036b0009e4378000782fb0004024300048242001c
:1036c0001442780011c0b3000440780030ff0700b6
:1036d0001ecfe8001e427800ef4f5200f0ff360088
:1036e0000080fa00000006000200fa000042eb0031
:1036f000044f78002000370004cbb3001e42420084
:103700008040eb000440780021ff07008040eb0080
:103710000040eb001eff07008040eb0000c1b3003b
:103720001bff07000042eb00144798000e00370013
:103730009e4278000582fb00c722dd001e429000f9
:103740000482fb0004824200855c290065427a0005
:1037500011c0b300044078000dff07001e42900026
:103760000442e800144798001e429000e04f5200c7
:10377000efff3d001e4fe8001e427800e74f520069
:10378000ddff36000080fa00000006000000fa00ad
:10379000c6c2a900c702a900c6e2a900c622a900a4
:1037a000c642a900cac2a800400620001a010700ac
:1037b000cac2a9004006200017010700cac2a8001b
:1037c0008040eb00e0cab300f1fe07008040eb0050
:1037d0000040eb00eefe07008040eb0000c1b300ac
:1037e000ebfe07008040eb0000c4b300e8fe0700da
:1037f0008040eb0010c8b300e5fe07008040eb00fe
:10380000f0ccb300e2fe07008040eb0010cab3002a
:10381000dffe07008040eb0000ccb300dcfe0700b9
:103820008040eb0060cab300d9fe07008040eb0087
:1038300080cab300d6fe07008040eb00f0c3b3009f
:10384000d3fe07008040eb0030cdb300d0fe070070
:103850008040eb000040eb00cdfe07008040eb0015
:1038600050cdb300cafe07008040eb0000c8b30093
:10387000c7fe07008040eb0090cdb300c4fe0700f8
:103880008040eb0010cfb300c1fe07008040eb008a
:10389000a0cdb300befe07008040eb0020c1b30006
:1038a000bbfe07008040eb00b0cdb300b8fe0700c0
:1038b0008040eb0000c4b300b5fe07008040eb0081
:1038c00000c2b300b2fe07008040eb0020c0b3008e
:1038d000affe07008040eb00d0c8b300acfe07008d
:1038e0008040eb0040c1b300a9fe07008040eb0020
:1038f00040cab300a6fe07008040eb0060cab300d8
:10390000a3fe07008040eb00f0cab300a0fe070052
:103910008040eb00f0cab3009dfe0700edfe0700fb
:103920008040eb000040eb00b9fe07000080fa0089
:10393000000006000600fa00200798000002eb00d5
:10394000040f78000b0037000002eb00140798000a
:10395000030037001e0290000402e80014079800dc
:103960009e029000f47c2000848f5200f9ff360004
:103970001e0fe8002e0290009e027800848f5200f5
:10398000f1ff39000080fa00000006000000fa0094
:103990000600370000000000153a800004022000f5
:1039a00004826200e00f5200fbff3200153a8000f3
:1039b000040023008482620004002300848f5200ec
:1039c000f4ff3a000080fa00000006000000fa0050
:1039d0000002eb00440e88000002eb00c4168800d1
:1039e0000002eb00d41688000080fa0000000600f8
:1039f0000000fa00c602a8000002eb0004158800cf
:103a0000041580000450a0000460a0000470a00011
:103a100004158800a042a8000002eb0014158800dd
:103a2000f4f12100241588000002eb003415880011
:103a3000a842a9000002eb0054158800c4048000cd
:103a400004c0a00004d0a00004e0a000c4048800ca
:103a50008d60a800a1e2a8000080fa000000060026
:103a60000000fa00c9ff0700d8ff070047ff070062
:103a700098fe0700deff070072c3b3008040eb0032
:103a800040c0b300b4fe070052c4b3008040eb0056
:103a900050c0b300b0fe0700c2c4b3008040eb00ca
:103aa00060c0b300acfe070032c4b3008040eb003e
:103ab00070c0b300a8fe0700f2c4b3008040eb0062
:103ac00080c0b300a4fe0700d2c4b3008040eb0066
:103ad00090c0b300a0fe070052c4b3008040eb00ca
:103ae000a0c0b3009cfe07000540800004712200c6
:103af000110009008482d800000278000442780096
:103b00000441780011c0b30040c0b30092fe07002a
:103b10000540800004712200110009008482d80051
:103b20000102780084027800843e20001100090020
:103b30008482d800000278000442780004417800b2
:103b400011c0b30050c0b30083fe070005408000e1
:103b5000843e2000110009008482d8000102780010
:103b60008402780044062000110009008482d800f5
:103b700000027800044278000441780011c0b300cc
:103b800060c0b30074fe07000540800044062000ba
:103b9000110009008482d8000102780084027800b4
:103ba000a4002000110009008482d80000027800df
:103bb000044278000441780011c0b30070c0b30023
:103bc00065fe070005408000a400200011000900e8
:103bd0008482d80001027800044278000441780011
:103be00011c0b30080c0b3005bfe0700803e200020
:103bf00009000700bcff3700841f78000000fa00ae
:103c00008560a90004148000044088000080fa0048
:103c10004f027800004006000400fa0010079800e8
:103c20000f00370084702000040f780000000000af
:103c30001e02780004f0a7000402ea000402ea0071
:103c40004f22de00044278001e0fe900e04f5200d0
:103c5000f7ff3a001e0290000402e90014079800e2
:103c60001e029000e00f5200eeff3a000080fa00c2
:043c7000000006004a
:020000040000fa
:103c74000008000002000000000000000000000036
:020000040000fa
:0200000401f009
:0400000007c3000032
:020000040000fa
:0200000401f009
:0400040000000000f8
:020000040000fa
:0200000401f009
:04000800a2830000cf
:020000040000fa
:0200000401f009
:04001400ffff0000ea
:00000001FF
